:020000000129D4
:10000600103083120313FD00FD0B072800000800C3
:10001600083083120313FC002330FD00FD0B11286A
:06002600FC0B112808008C
:04002C0000000800C8
:1000300083120313AE1B1E2886111F2886152E1B44
:100040002328061124280615AE1A282886102928E8
:1000500086142E1A2D2806102E280614261832284B
:10006000061633280612861616208612AE193A286E
:1000700086113B2886152E193F28061140280615A3
:10008000AE1844288610452886142E1849280610D4
:100090004A28061426184E2806164F2806128616D9
:1000A00016208612261C56280B20572803200800ED
:0E00B0008312031328088A0027088200080024
:1000BE008312031326102D08AE00182026140800F4
:1000CE008316031386120612061086100611861169
:1000DE0083128612061286110611861006100B2048
:1000EE000B200B20861406148616162086120B2063
:1000FE008616162086120B208616162086120B20C8
:10010E0006108616162086120B20861616208612CC
:10011E00861086158616162086120B20861106145A
:10012E0086161620861206108616162086120B20AC
:10013E0086161620861206148616162086120B2098
:10014E0006108616162086128615061586140614B7
:0C015E008616162086120B2026140800BE
:10016A00C728803083120313A900DA28C030A900F7
:10017A00DA289430A900DA28D430A900DA288030A5
:10018A00A900DA28831203132908013A0319B628A9
:10019A002908023A0319BB282908033A0319BE2879
:1001AA002908043A0319C128C4282A03F000290897
:1001BA00F0077008A9007008AE0018202610AC01DC
:1001CA002C082B07840000080319F3282C082B0796
:1001DA0084000008AD005F20AC0AE5282614080058
:1001EA0058208A110A128000840AA70A0319A80A49
:0801FA00F003031DF5280800C5
:10020200683083120313A0006530A1006C30A20095
:100212006C30A3006F30A400A5018316880167200B
:100222000130A9000130AA002030AB00B5208810AF
:10023200081408150630FB001330FC00AD30FD0039
:10024200FD0B2129FC0B2129FB0B212900000000B9
:100252008814081008150630FB001330FC00AD307E
:10026200FD00FD0B3229FC0B3229FB0B3229000069
:06027200000018293B29E1
:02400E004A2F37
:00000001FF
