:02000000302AA4
:0400060000000800EE
:10000A00083083120313FC002330FD00FD0B0B287C
:06001A00FC0B0B2808009E
:10002000103083120313FD00FD0B1428000008009C
:1000300083120313E91B1E2886111F288615691BCE
:100040002328061124280615E91A282886102928AD
:100050008614691A2D2806102E28061447183228EF
:10006000061633280612861603208612E9193A2846
:1000700086113B28861569193F2806114028061568
:10008000E91844288610452886146918492806105E
:100090004A28061447184E2806164F2806128616B8
:1000A00003208612471C56280520572810200800D8
:1000B00083120313F801F9011030FC00710DF80DE3
:1000C000F90D7408F8027508031C750FF90203187E
:1000D00070287408F80775080318750FF9070310DE
:0A00E000F00DF10DFC0B5E28080086
:1000EA0083120313E70105306702031883286708A0
:1000FA006607840020308000E70A782867086607C8
:10010A0084008001E70367086607E8000A30F40004
:10011A00F5016408F0006508F10058207808F0003D
:10012A007908F1003030F007680884007008800010
:10013A000A30F400F5016408F0006508F10058205F
:10014A007008E4007108E50000307106031DAF284D
:10015A0000307006031DB228B428E7038828080077
:0E016A008312031346088A004508820008002D
:100178008312031347106408E90018204714080085
:0E018800073083120313FD00FD0BC82808008A
:1001960083120313FB01FA01F9018030F800F10C18
:1001A600F00C031CDF287408F90775080318750F8F
:1001B600FA070318FB0A0310F01FE7287408FA076A
:1001C60075080318750FFB07FB0CFA0CF90CF80CF5
:1001D600031CD2287B08F3007A08F2007908F100A4
:0601E6007808F00008009B
:1001EC00831203139F01C0309F0483161F179F17A0
:1001FC0083125B08F000F00D7010F00D7010F00D14
:10020C00701070089F041F14C4201F151F1D102987
:10021C0000000C291F101E08F100F00183161E08A7
:08022C00F0040030F1040800A9
:1002340083120313E001E1015B08E2005C08E300C0
:1002440080305C06F00080307002031D2B290030E2
:100254005B02031839290130E0000030E1005B083B
:10026400003CE2005C08031C013EE301E302620877
:10027400E4006308E5005D08E60075200630DE0052
:100284000030DF005F08003C031D4A295E08003C83
:10029400031865295E085D07F20001305E02F00074
:1002A4000030031C013E5F02F10070085D0784000A
:1002B4000008F00072088400700880000130DE023B
:1002C400031CDF0344295D0884002030800060089B
:1002D400610403198329DE01DF015E085D078400E0
:1002E4000008203A031D7A29DE0A0319DF0A6F2960
:1002F4000130DE02031CDF035E085D0784002D303D
:04030400800008006D
:1003080083120313DC015C085B07840000080319EF
:1003180095295C085B0784000008E400BC20DC0A1F
:040328008729080019
:10032C00A829803083120313DB00BB29C030DB000B
:10033C00BB299430DB00BB29D430DB00BB298030D7
:10034C00DB00BB29831203135B08013A03199729BD
:10035C005B08023A03199C295B08033A03199F298D
:10036C005B08043A0319A229A5295C03F0005B0879
:10037C00F0077008DB007008E90018204710DE0158
:10038C005E085D07840000080319D4295E085D0728
:10039C0084000008E400BC20DE0AC62947140800CB
:1003AC008316031386120612061086100611861188
:1003BC00831286120612861106118610061005206D
:1003CC0005200520861406148616032086120520A7
:1003DC008616032086120520861603208612052019
:1003EC000610861603208612052086160320861218
:1003FC008610861586160320861205208611061493
:10040C0086160320861206108616032086120520F7
:10041C0086160320861206148616032086120520E3
:10042C0006108616032086128615061586140614E9
:0C043C00861603208612052047140800D5
:10044800B5208A110A128000840AC50A0319C60A4F
:08045800F003031D242A080033
:100460002023D6210130E90018200C30E9001820A3
:100470000130DB000130DC002030DD0096218316E6
:100480008701033088000230FB000430FC00BA30E2
:10049000FD00FD0B492AFC0B492AFB0B492A0000F1
:1004A00001308312DB00F62070088312C800710847
:1004B000C9000230DB00F62070088312CA00710800
:1004C000CB000330DB00F62070088312CC007108EB
:1004D000CD000430DB00F6209630F400F501CB208F
:1004E0007008D2007108D30048084A02CE004908BB
:1004F000031C013E4B02CF004C084A02D0004D08BD
:10050000031C013E4B02D1007008DB007108DC00C7
:100510005430DD001A210230DB000130DC004130B4
:10052000DD0096210230DB000430DC005430DD00B9
:1005300096213D30DB00842180305306F00080306E
:10054000053A7002031DA62ADC305202031CCA2A97
:1005500087100230DB000130DC002C30DD009621FA
:100560000B30FB002630FC005D30FD00FD0BB62A91
:10057000FC0BB62AFB0BB62A000000000430DB009F
:10058000F6209630F400F501CB207008D2007108F7
:10059000D3009C2A0818D52A871407168712881CAE
:1005A000D22ACF2A87100712871280304F06F00018
:1005B0007F307002031DDE2AEC304E020318E42A5D
:1005C000871407168712F42A80305106F0007F3016
:1005D0007002031DED2AEC3050020318F32A0712B3
:0C05E00087168714F42A8710432AF52A96
:1006400020308400253083120313F000FB30C500F6
:080650000230C600242208005C
:1005F600533475346E342034543472346134633475
:080606006B34653472340034DA
:10060E004D346F3474346F34723420344F34663456
:10061E0066342034203420342034203420342034E6
:02062E00003496
:0806300020347534413400341C
:0806380049343D342034003444
:02400E004A2F37
:00000001FF
